:020000040800F2
:1000000000000220D11D00085D1C0008631C0008D0
:10001000691C00086F1C0008751C00080000000027
:10002000000000000000000000000000B196000881
:100030007B1C00080000000001990008891C0008D2
:10004000211E0008211E0008211E0008211E000894
:10005000211E0008211E0008A31C0008211E000804
:10006000211E0008B11C0008BF1C0008211E00084A
:10007000211E0008211E0008211E0008211E000864
:10008000211E0008211E0008211E0008CD1C0008AA
:10009000251E0008E11C0008F51C0008091D0008C9
:1000A000211E0008211E0008211E0008211E000834
:1000B000211E0008211E0008211E0008211E000824
:1000C000211E0008211E0008211E0008211E000814
:1000D000211E0008211E0008211E0008211E000804
:1000E000271D0008211E0008211E0008211E0008EF
:1000F000211E0008211E0008211E0008211E0008E4
:10010000211E0008211E0008211E0008211E0008D3
:10011000211E0008211E0008211E0008211E0008C3
:10012000211E0008211E0008211E0008211E0008B3
:10013000211E00080000000000000000211E000831
:10014000211E0008211E0008211E0008211E000893
:10015000211E0008211E0008211E0008211E000883
:10016000211E0008211E0008211E0008211E000873
:10017000211E0008211E0008211E000800000000AA
:1001800000000000211E0008000000000000000028
:10019000211E00080000000000000000211E0008D1
:1001A000000000000000000000000000211E000808
:1001B000211E0008211E0008211E0008211E000823
:0401C000211E0008F4
:1001D00010B5054C237833B9044B13B10448AFF381
:1001E00000800123237010BD441000200000000097
:1001F0007CC7000808B5034B1BB103490348AFF3A4
:10020000008008BD00000000481000207CC70008E6
:1002100001F0FF01102A2BDB10F0070F08D010F8B7
:10022000013B013A8B422DD010F0070F42B3F6D1BB
:10023000F0B441EA012141EA014122F007047FF0D4
:1002400000070023F0E80256083C85EA010586EA2B
:10025000010685FA47F5A3FA87F586FA47F6A5FA67
:1002600087F68EB9EED1F0BC01F0FF0102F0070273
:1002700032B110F8013B013A83EA010313B1F8D11E
:100280000020704701387047002D06BF35460338FF
:10029000073815F0010F07D1013015F4807F02BF38
:1002A000013015F4C03F0130F0BC0138704700BF89
:1002B00053B94AB9002908BF00281CBF4FF0FF31CD
:1002C0004FF0FF3000F074B9ADF1080C6DE904CEC9
:1002D00000F006F8DDF804E0DDE9022304B0704721
:1002E0002DE9F047089D04468E46002B4DD18A42E9
:1002F000944669D9B2FA82F252B101FA02F3C2F11C
:10030000200120FA01F10CFA02FC41EA030E9440AC
:100310004FEA1C48210CBEFBF8F61FFA8CF708FBCD
:1003200016E341EA034306FB07F199420AD91CEBA5
:10033000030306F1FF3080F01F81994240F21C81D7
:10034000023E63445B1AA4B2B3FBF8F008FB10331F
:1003500044EA034400FB07F7A7420AD91CEB040454
:1003600000F1FF3380F00A81A74240F20781644424
:10037000023840EA0640E41B00261DB1D4400023A9
:10038000C5E900433146BDE8F0878B4209D9002D0D
:1003900000F0EF800026C5E9000130463146BDE897
:1003A000F087B3FA83F6002E4AD18B4202D3824201
:1003B00000F2F980841A61EB030301209E46002DB0
:1003C000E0D0C5E9004EDDE702B9FFDEB2FA82F205
:1003D000002A40F09280A1EB0C014FEA1C471FFA63
:1003E0008CFE0126200CB1FBF7F307FB131140EA4A
:1003F00001410EFB03F0884208D91CEB010103F117
:10040000FF3802D2884200F2CB804346091AA4B2D8
:10041000B1FBF7F007FB101144EA01440EFB00FEAC
:10042000A64508D91CEB040400F1FF3102D2A64511
:1004300000F2BB800846A4EB0E0440EA03409CE7B0
:10044000C6F12007B34022FA07FC4CEA030C20FA5D
:1004500007F401FA06F31C43F9404FEA1C4900FA7D
:1004600006F3B1FBF9F8200C1FFA8CFE09FB1811FA
:1004700040EA014108FB0EF0884202FA06F20BD96D
:100480001CEB010108F1FF3A80F08880884240F2BD
:100490008580A8F102086144091AA4B2B1FBF9F001
:1004A00009FB101144EA014100FB0EFE8E4508D9FC
:1004B0001CEB010100F1FF346CD28E456AD9023881
:1004C000614440EA0840A0FB0294A1EB0E01A14266
:1004D000C846A64656D353D05DB1B3EB080261EBD4
:1004E0000E0101FA07F722FA06F3F1401F43C5E9AE
:1004F000007100263146BDE8F087C2F12003D840E4
:100500000CFA02FC21FA03F3914001434FEA1C4725
:100510001FFA8CFEB3FBF7F007FB10360B0C43EA17
:10052000064300FB0EF69E4204FA02F408D91CEBC7
:10053000030300F1FF382FD29E422DD902386344C5
:100540009B1B89B2B3FBF7F607FB163341EA034165
:1005500006FB0EF38B4208D91CEB010106F1FF38B4
:1005600016D28B4214D9023E6144C91A46EA0046AB
:1005700038E72E46284605E70646E3E61846F8E63D
:100580004B45A9D2B9EB020864EB0C0E0138A3E786
:100590004646EAE7204694E74046D1E7D0467BE767
:1005A000023B614432E7304609E76444023842E7DF
:1005B000704700BF80B500AF02F000F900F034F8DA
:1005C00000F0ECFC00F0A0F800F03AF900F032FA8C
:1005D00000F066FA00F0AEFA00F0DAFA00F006FB7E
:1005E00000F058FB00F08CFB00F0C0FB00F082FC38
:1005F00000F0AAFC00F08AFA00F026FB09F03EFFAA
:1006000006F042FB054A0021054806F087FB034639
:10061000044A136006F05CFBFEE700BFF8CA00085E
:100620008D120008E413002080B594B000AF07F1EC
:100630001C033422002118460BF038FC07F1080394
:1006400000221A605A609A60DA601A6100237B60A7
:100650002B4B1B6C2A4A43F080531364284B1B6CB2
:1006600003F080537B607B6800233B60254B1B6855
:1006700023F44043234A43F480431360214B1B6817
:1006800003F440433B603B680A23FB6101237B6228
:100690000123BB621023FB6201233B6302237B63C4
:1006A0000023BB630823FB6354233B6402237B6466
:1006B0000223BB640223FB6407F11C03184604F009
:1006C000E1FC0346002B01D000F0E8FD0F23BB60E6
:1006D0000223FB6000233B614FF480537B610023C6
:1006E000BB6107F108030221184603F0DDFE034653
:1006F000002B01D000F0D2FD00BF5037BD4680BDB9
:10070000003802400070004080B584B000AF3B4626
:1007100000221A605A609A60DA60464B464A1A60B4
:10072000444B4FF480325A60424B00229A60414B56
:1007300001221A613F4B00221A763E4B002283F8B9
:1007400020203C4B0022DA623A4B3C4A9A62394BF9
:100750000022DA60374B0722DA61364B002283F839
:100760003020344B01225A61324802F0BDF8034672
:10077000002B01D000F092FD04233B6001237B603D
:100780000223BB603B4619462A4802F08FFA034613
:10079000002B01D000F082FD02237B600023BB60B0
:1007A0003B461946234802F081FA0346002B01D04C
:1007B00000F074FD03237B603B4619461D4802F0A0
:1007C00075FA0346002B01D000F068FD04237B601E
:1007D0003B461946174802F069FA0346002B01D040
:1007E00000F05CFD05237B603B461946114802F092
:1007F0005DFA0346002B01D000F050FD06237B601C
:100800003B4619460B4802F051FA0346002B01D033
:1008100000F044FD07237B603B461946054802F083
:1008200045FA0346002B01D000F038FD00BF103719
:10083000BD4680BD60100020002001400100000F77
:1008400080B584B000AF3B4600221A605A609A60BF
:10085000DA60754B754A1A60734B4FF480325A60F8
:10086000714B00229A60704B01221A616E4B00227C
:100870001A766D4B002283F820206B4B0022DA623F
:10088000694B6B4A9A62684B0022DA60664B0F2212
:10089000DA61654B002283F83020634B01225A61F4
:1008A000614802F021F80346002B01D000F0F6FC6D
:1008B00001233B6001237B600023BB603B4619465C
:1008C000594802F0F3F90346002B01D000F0E6FC92
:1008D00002237B603B461946534802F0E7F9034682
:1008E000002B01D000F0DAFC03237B603B46194665
:1008F0004D4802F0DBF90346002B01D000F0CEFC9E
:1009000004237B603B461946474802F0CFF9034673
:10091000002B01D000F0C2FC05237B603B4619464A
:10092000414802F0C3F90346002B01D000F0B6FCA9
:1009300006237B603B4619463B4802F0B7F9034665
:10094000002B01D000F0AAFC07237B603B46194630
:10095000354802F0ABF90346002B01D000F09EFCB5
:1009600008237B603B4619462F4802F09FF9034657
:10097000002B01D000F092FC09237B603B46194616
:10098000294802F093F90346002B01D000F086FCC1
:100990000A237B603B461946234802F087F9034649
:1009A000002B01D000F07AFC0B237B603B461946FC
:1009B0001D4802F07BF90346002B01D000F06EFCCD
:1009C0000C237B603B461946174802F06FF903463B
:1009D000002B01D000F062FC0D237B603B461946E2
:1009E000114802F063F90346002B01D000F056FCD9
:1009F0000E237B603B4619460B4802F057F903462D
:100A0000002B01D000F04AFC0F237B603B461946C7
:100A1000054802F04BF90346002B01D000F03EFCE4
:100A200000BF1037BD4680BDA81000200022014045
:100A30000100000F80B500AF174B184A1A60164B23
:100A40000C225A60144B00229A60134B0022DA6089
:100A5000114B4FF420221A610F4B4FF480125A6150
:100A60000D4B00221A760C4B00225A760A4B0022BC
:100A70009A76094B0122DA76074B00221A77064B49
:100A800000225A77044802F03FFB0346002B01D0B6
:100A900000F004FC00BF80BDF010002000640040A6
:100AA00080B500AF174B184A1A60164B0C225A60DB
:100AB000144B00229A60134B0022DA60114B4FF462
:100AC00020221A610F4B4FF480125A610D4B002205
:100AD0001A760C4B00225A760A4B00229A76094B62
:100AE0000122DA76074B00221A77064B00225A774A
:100AF000044802F009FB0346002B01D000F0CEFBB6
:100B000000BF80BD181100200068004080B500AF14
:100B1000064B074A1A60054803F093F90346002B79
:100B200001D000F0BBFB00BF80BD00BF4011002022
:100B30000030024080B500AF124B134A1A60114BCF
:100B4000124A5A600F4B00229A600E4B0022DA6064
:100B50000C4B4FF480421A610A4B00225A61094B38
:100B600000229A61074B0022DA61064B00221A62CA
:100B7000044803F055FB0346002B01D000F08EFB28
:100B800000BF80BD4811002000540040A086010035
:100B900080B500AF124B134A1A60114B124A5A60CB
:100BA0000F4B00229A600E4B0022DA600C4B4FF480
:100BB00080421A610A4B00225A61094B00229A6155
:100BC000074B0022DA61064B00221A62044803F048
:100BD00027FB0346002B01D000F060FB00BF80BD67
:100BE0009C11002000580040A086010080B500AF95
:100BF000124B134A1A60114B124A5A600F4B0022D3
:100C00009A600E4B0022DA600C4B4FF480421A615E
:100C10000A4B00225A61094B00229A61074B0022BD
:100C2000DA61064B00221A62044803F0F9FA03461F
:100C3000002B01D000F032FB00BF80BDF01100207E
:100C4000005C0040A086010080B500AF0F4B104A49
:100C50001A600E4B00225A600C4B7F229A600B4B9D
:100C6000FF22DA60094B00221A61084B00225A6108
:100C7000064B00229A61054804F0A2FC0346002BB3
:100C800001D000F00BFB00BF80BD00BF441200206C
:100C90000028004080B500AF174B184A1A60164B69
:100CA0004FF482725A60144B00229A60124B002259
:100CB000DA60114B00221A610F4B00225A610E4B71
:100CC0004FF400729A610C4B0022DA610A4B002249
:100CD0001A62094B00225A62074B00229A62064BA5
:100CE0000A22DA62044804F065FD0346002B01D0B5
:100CF00000F0D4FA00BF80BD64120020003800402C
:100D000080B500AF174B184A1A60164B4FF4827229
:100D10005A60144B00229A60124B0022DA60114B89
:100D200000221A610F4B00225A610E4B4FF48022B1
:100D30009A610C4B0022DA610A4B00221A62094BBD
:100D400000225A62074B00229A62064B0A22DA629C
:100D5000044804F02FFD0346002B01D000F09EFA5A
:100D600000BF80BDBC120020003C004080B596B0A2
:100D700000AF07F1480300221A605A609A60DA60F7
:100D800007F1400300221A605A6007F12403002291
:100D90001A605A609A60DA601A615A619A613B1D62
:100DA0002022002118460BF081F8504B504A1A605F
:100DB0004E4B42F2CF025A604C4B00229A604B4B92
:100DC0000422DA60494B00221A61484B00225A6122
:100DD000464B00229A61454804F075FD0346002BFE
:100DE00001D000F05BFA4FF48053BB6407F1480375
:100DF00019463E4804F0D2FE0346002B01D000F015
:100E00004DFA3A4804F0AEFD0346002B01D000F045
:100E100045FA00233B6400237B6407F14003194635
:100E2000324805F06DFA0346002B01D000F036FA87
:100E300060237B620023BB620023FB6200233B63D1
:100E400000237B630023BB630023FB6307F12403C0
:100E500000221946254804F0DFFD0346002B01D08F
:100E600000F01CFA07F12403042219461F4804F07D
:100E7000D3FD0346002B01D000F010FA07F1240344
:100E800008221946194804F0C7FD0346002B01D07B
:100E900000F004FA07F124030C221946134804F069
:100EA000BBFD0346002B01D000F0F8F900237B6066
:100EB0000023BB600023FB6000233B6100237B61B8
:100EC0004FF40053BB6100233B623B1D19460748AA
:100ED00005F092FA0346002B01D000F0DFF9034839
:100EE00000F0C4FD00BF5837BD4680BD141300207C
:100EF0000000014080B500AF114B124A1A60104B40
:100F00004FF4E1325A600E4B00229A600C4B0022E3
:100F1000DA600B4B00221A61094B0C225A61084B14
:100F200000229A61064B0022DA61054805F0B6FA04
:100F30000346002B01D000F0B1F900BF80BD00BF17
:100F40005C130020004C004080B500AF114B124AEA
:100F50001A60104B4FF4E1325A600E4B00229A6037
:100F60000C4B0022DA600B4B00221A61094B0C2259
:100F70005A61084B00229A61064B0022DA6105484B
:100F800005F08CFA0346002B01D000F087F900BF72
:100F900080BD00BFA01300200050004080B58EB07F
:100FA00000AF07F1240300221A605A609A60DA60E9
:100FB0001A6100233B62AE4B1B6BAD4A43F010033A
:100FC0001363AB4B1B6B03F010033B623B6A0023C4
:100FD000FB61A74B1B6BA64A43F004031363A44BAE
:100FE0001B6B03F00403FB61FB690023BB61A04B97
:100FF0001B6B9F4A43F0200313639D4B1B6B03F055
:101000002003BB61BB6900237B61994B1B6B984A32
:1010100043F080031363964B1B6B03F080037B61EB
:101020007B6900233B61924B1B6B914A43F00103A8
:1010300013638F4B1B6B03F001033B613B69002380
:10104000FB608B4B1B6B8A4A43F002031363884B94
:101050001B6B03F00203FB60FB680023BB60844B47
:101060001B6B834A43F040031363814B1B6B03F0FC
:101070004003BB60BB6800237B607D4B1B6B7C4ADD
:1010800043F0080313637A4B1B6B03F008037B6088
:101090007B680022FF21774803F084F800224FF498
:1010A0000451754803F07EF800224FF46041734804
:1010B00003F078F8002245F26751714803F072F8A6
:1010C00000224FF682416F4803F06CF8FF237B62E9
:1010D0000123BB620023FB6200233B6307F124036F
:1010E0001946644802F0CAFE4FF404537B620123A0
:1010F000BB620023FB6200233B6307F12403194614
:101100005D4802F0BBFE4FF460437B620123BB628B
:101110000023FB6200233B6307F124031946574871
:1011200002F0ACFE45F267537B620123BB620023F1
:10113000FB6200233B6307F124031946504802F089
:101140009DFE4FF480737B620023BB620023FB6231
:1011500007F124031946474802F090FE4FF68243F8
:101160007B620123BB620023FB6200233B6307F128
:1011700024031946434802F081FE42F618237B629D
:101180004FF48813BB620023FB6207F12403194666
:101190003B4802F073FE80237B620023BB62002386
:1011A000FB6207F124031946354802F067FE8023ED
:1011B0007B624FF48813BB620023FB6207F12403B8
:1011C00019462D4802F05AFE01237B624FF4881322
:1011D000BB620023FB6207F124031946294802F091
:1011E0004DFE4FF480737B624FF48813BB62002383
:1011F000FB6207F124031946234802F03FFE4FF437
:1012000000737B620023BB620023FB6207F12403AF
:1012100019461D4802F032FE00220521062002F088
:10122000DAFD062002F0F3FD00220521092002F07C
:10123000D2FD092002F0EBFD002205210A2002F078
:10124000CAFD0A2002F0E3FD00220521172002F06A
:10125000C2FD172002F0DBFD00220521282002F04C
:10126000BAFD282002F0D3FD00BF3837BD4680BD4F
:101270000038024000100240000802400014024002
:1012800000180240000C02400004024080B582B009
:1012900000AF7860012005F0D3FDFBE780B400AF1C
:1012A00072B600BFFEE7000080B582B000AF002339
:1012B0007B60124B5B6C114A43F4804353640F4BC9
:1012C0005B6C03F480437B607B6800233B600B4BCB
:1012D0001B6C0A4A43F080531364084B1B6C03F0E9
:1012E00080533B603B6800220F216FF0010002F049
:1012F00072FD00BF0837BD4680BD00BF0038024008
:1013000080B590B000AF786007F12C0300221A601E
:101310005A609A60DA601A617B681B68624A93427D
:101320005CD10023BB62614B5B6C604A43F4807309
:1013300053645E4B5B6C03F48073BB62BB6A002337
:101340007B625A4B1B6B594A43F001031363574BA3
:101350001B6B03F001037B627B6A00233B62534BF0
:101360001B6B524A43F004031363504B1B6B03F097
:1013700004033B623B6A0023FB614C4B1B6B4B4AF3
:1013800043F002031363494B1B6B03F00203FB6141
:10139000FB69F023FB6203233B6300237B6307F1BC
:1013A0002C031946424802F069FD3023FB620323F7
:1013B0003B6300237B6307F12C0319463D4802F091
:1013C0005DFD0223FB6203233B6300237B6307F184
:1013D0002C031946384802F051FD61E07B681B6818
:1013E000364A93425CD10023BB61304B5B6C2F4A81
:1013F00043F4806353642D4B5B6C03F48063BB61E7
:10140000BB6900237B61294B1B6B284A43F02003F7
:101410001363264B1B6B03F020037B617B69002366
:101420003B61224B1B6B214A43F0040313631F4BA8
:101430001B6B03F004033B613B690023FB601B4B08
:101440001B6B1A4A43F001031363184B1B6B03F029
:101450000103FB60FB684FF4FF63FB6203233B6304
:1014600000237B6307F12C031946154802F006FDA3
:101470000F23FB6203233B6300237B6307F12C03F1
:1014800019460C4802F0FAFC0E23FB6203233B636F
:1014900000237B6307F12C031946054802F0EEFC9C
:1014A00000BF4037BD4680BD0020014000380240EB
:1014B00000000240000802400004024000220140F7
:1014C0000014024080B58CB000AF786007F11C03B7
:1014D00000221A605A609A60DA601A617B681B68A1
:1014E000534A934256D1534B1B680133514A136000
:1014F000504B1B68012B0DD10023BB614E4B1B6C65
:101500004D4A43F0007313644B4B1B6C03F00073A4
:10151000BB61BB6900237B61474B1B6B464A43F0B1
:1015200001031363444B1B6B03F001037B617B6975
:101530004FF4C053FB6102233B6200237B62032311
:10154000BB620923FB6207F11C0319463B4802F00A
:1015500095FC00220521132002F03DFC132002F02F
:1015600056FC00220521142002F035FC142002F064
:101570004EFC00220521152002F02DFC152002F062
:1015800046FC00220521162002F025FC162002F060
:101590003EFC48E07B681B68294A934243D1002304
:1015A0003B61254B1B6C244A43F080631364224B40
:1015B0001B6C03F080633B613B691E4B1B6801336E
:1015C0001C4A13601B4B1B68012B0DD10023FB60D1
:1015D000194B1B6C184A43F000731364164B1B6CB9
:1015E00003F00073FB60FB680023BB60124B1B6BB6
:1015F000114A43F0020313630F4B1B6B03F002030A
:10160000BB60BB684FF44053FB6102233B62002385
:101610007B620323BB620923FB6207F11C031946AB
:10162000084802F02BFC00BF3037BD4680BD00BF2C
:1016300000640040E813002000380240000002402F
:10164000006800400004024080B485B000AF7860BC
:101650007B681B680B4A93420DD10023FB600A4B49
:101660001B6B094A43F480531363074B1B6B03F452
:101670008053FB60FB6800BF1437BD465DF8047BF8
:10168000704700BF003002400038024080B58EB085
:1016900000AF786007F1240300221A605A609A6054
:1016A000DA601A617B681B685B4A93422CD1002385
:1016B0003B625A4B1B6B594A43F002031363574B6F
:1016C0001B6B03F002033B623B6AC0237B62122365
:1016D000BB620023FB6203233B6304237B6307F1AC
:1016E000240319464E4802F0C9FB0023FB614B4B13
:1016F0001B6C4A4A43F400131364484B1B6C03F4FD
:101700000013FB61FB6982E07B681B68454A9342DA
:101710002CD10023BB61414B1B6B404A43F020039B
:1017200013633E4B1B6B03F02003BB61BB690323B8
:101730007B621223BB620023FB6203233B6304230F
:101740007B6307F124031946374802F097FB002317
:101750007B61324B1B6C314A43F4800313642F4B83
:101760001B6C03F480037B617B6950E07B681B6822
:101770002E4A93424BD100233B61284B1B6B274AD7
:1017800043F004031363254B1B6B03F004033B611D
:101790003B690023FB60214B1B6B204A43F0010394
:1017A00013631E4B1B6B03F00103FB60FB684FF4DC
:1017B00000737B621223BB620023FB6203233B6343
:1017C00004237B6307F124031946194802F056FBF2
:1017D0004FF480737B621223BB620023FB620323FE
:1017E0003B6304237B6307F124031946114802F08D
:1017F00045FB0023BB60094B1B6C084A43F4000304
:101800001364064B1B6C03F40003BB60BB6800BF92
:101810003837BD4680BD00BF00540040003802404C
:10182000000402400058004000140240005C0040E8
:10183000000802400000024080B59AB000AF786016
:1018400007F10C035C22002118460AF02FFB7B688D
:101850001B680C4A934211D12023FB604FF40073A4
:10186000FB6407F10C03184602F038FF0346002B17
:1018700001D0FFF713FD044B01221A6000BF683747
:10188000BD4680BD002800403C0E474280B58EB06A
:1018900000AF786007F1240300221A605A609A6052
:1018A000DA601A617B681B68594A93422DD1002384
:1018B0003B62584B1B6C574A43F480431364554BAF
:1018C0001B6C03F480433B623B6A0023FB61514B7A
:1018D0001B6B504A43F0020313634E4B1B6B03F028
:1018E0000203FB61FB694FF444437B620223BB624A
:1018F0000023FB6203233B6305237B6307F124037F
:101900001946454802F0BAFA7EE07B681B68434AF4
:10191000934279D10023BB613E4B1B6C3D4A43F49B
:10192000004313643B4B1B6C03F40043BB61BB6976
:1019300000237B61374B1B6B364A43F00203136372
:10194000344B1B6B03F002037B617B6900233B611B
:10195000304B1B6B2F4A43F0010313632D4B1B6B62
:1019600003F001033B613B690023FB60294B1B6BC8
:10197000284A43F004031363264B1B6B03F0040354
:10198000FB60FB6801237B620223BB620023FB62D6
:1019900003233B6307237B6307F1240319461E4897
:1019A00002F06CFA4FF400437B620223BB62002317
:1019B000FB6203233B6306237B6307F12403194681
:1019C000174802F05BFA4FF480637B620223BB622C
:1019D0000023FB6203233B6306237B6307F124039D
:1019E0001946104802F04AFA10237B620223BB62B8
:1019F0000023FB6203233B6306237B6307F124037D
:101A00001946054802F03AFA00BF3837BD4680BD96
:101A1000003800400038024000040240003C004012
:101A2000000002400008024080B485B000AF78603A
:101A30007B681B680B4A93420DD10023FB600A4B65
:101A40005B6C094A43F001035364074B5B6C03F082
:101A50000103FB60FB6800BF1437BD465DF8047BE3
:101A6000704700BF000001400038024080B588B0D8
:101A700000AF786007F10C0300221A605A609A6088
:101A8000DA601A617B681B68124A93421ED10023F8
:101A9000BB60114B1B6B104A43F0100313630E4BDA
:101AA0001B6B03F01003BB60BB684FF4D443FB60B7
:101AB00002233B6100237B610023BB610123FB61A7
:101AC00007F10C031946054802F0D8F900BF20378A
:101AD000BD4680BD000001400038024000100240B9
:101AE00080B58EB000AF786007F1240300221A6041
:101AF0005A609A60DA601A617B681B68514A9342A7
:101B00004BD100233B62504B1B6C4F4A43F40023E4
:101B100013644D4B1B6C03F400233B623B6A0023B0
:101B2000FB61494B1B6B484A43F001031363464B6F
:101B30001B6B03F00103FB61FB690023BB61424B9C
:101B40001B6B414A43F0040313633F4B1B6B03F0D1
:101B50000403BB61BB6901237B620223BB620023D8
:101B6000FB6203233B6308237B6307F124031946CD
:101B7000364802F083F94FF400637B620223BB62B4
:101B80000023FB6203233B6308237B6307F12403E9
:101B900019462F4802F072F94FE07B681B682D4A06
:101BA00093424AD100237B61274B1B6C264A43F4A6
:101BB00080131364244B1B6C03F480137B617B69DB
:101BC00000233B61204B1B6B1F4A43F0040313634C
:101BD0001D4B1B6B03F004033B613B690023FB605F
:101BE000194B1B6B184A43F008031363164B1B6B0E
:101BF00003F00803FB60FB684FF480537B62022311
:101C0000BB620023FB6203233B6308237B6307F172
:101C1000240319460E4802F031F904237B620223A3
:101C2000BB620023FB6203233B6308237B6307F152
:101C300024031946084802F021F900BF3837BD4691
:101C400080BD00BF004C0040003802400000024050
:101C50000008024000500040000C024080B400AF79
:101C6000FEE780B400AFFEE780B400AFFEE780B4CB
:101C700000AFFEE780B400AFFEE780B400AF00BF66
:101C8000BD465DF8047B704780B500AF00F0E8FD0D
:101C900006F0C6FE0346012B01D007F065FE00BF2B
:101CA00080BD80B500AF012002F096FA00BF80BD74
:101CB00080B500AF082002F08FFA00BF80BD80B56C
:101CC00000AF102002F088FA00BF80BD80B500AFE1
:101CD000024801F06BFD00BF80BD00BFF010002086
:101CE00080B500AF024801F061FD00BF80BD00BFBC
:101CF000F010002080B500AF024801F057FD00BF92
:101D000080BD00BFF010002080B500AF802002F041
:101D100063FA4FF4807002F05FFA4FF4007002F043
:101D20005BFA00BF80BD80B500AF4FF4006002F0E9
:101D300053FA4FF4005002F04FFA00BF80BD00008C
:101D400080B586B000AF7860144A154BD31A7B611A
:101D50007B693B61134B1B68002B02D1114B124A6C
:101D60001A60104B1A687B6813443A699A4207D28A
:101D70000AF064F803460C221A604FF0FF3309E0C2
:101D8000084B1B68FB60074B1A687B681344054AC5
:101D90001360FB6818461837BD4680BD000002205E
:101DA00000400000EC13002090C1002080B400AF80
:101DB000064BD3F88830054A43F47003C2F88830E4
:101DC00000BFBD465DF8047B704700BF00ED00E03A
:101DD000DFF834D00D480E490E4A002302E0D458F3
:101DE000C4500433C4188C42F9D30B4A0B4C002363
:101DF00001E013600432A242FBD3FFF7D7FF0AF0E1
:101E000023F8FEF7D7FB70470000022000000020F7
:101E10008800002014CC00084410002090C100204D
:101E2000FEE70000F0B587B006AF164801F0BEFC33
:101E3000154B164A0021134801F080FB0346002B86
:101E400001D0FFF72BFA0F4BD3F8B0610D4D0E4BBD
:101E500004936C4605F178030FCB84E80F0005F17D
:101E60006C030ECB0A48B0470221064801F078FC0B
:101E70000346002B01D0FFF711FA00BF0437BD461F
:101E8000F0BD00BFA4BF002038C0002010C000205B
:101E900040C00020B0B582B000AF786039607A6889
:101EA0003B6814461D460FCD0FC40FCD0FC495E8F7
:101EB000030084E803007B682833282200211846A9
:101EC00009F0F4FF7B68503318220021184609F00E
:101ED000EDFF7B6800229A667B686C331C22002130
:101EE000184609F0E3FF7B680022C3F888207B686E
:101EF0008C3308220021184609F0D8FF7B68943300
:101F000008220021184609F0D1FF00BF0837BD465E
:101F1000B0BD80B584B000AFF860384680E80E00F0
:101F2000FB6803F5D4733A4607CA83E80700FB68E9
:101F3000B9691846FFF7AEFFFB689C3314220021F5
:101F4000184609F0B3FFFB68B033F82200211846A9
:101F500009F0ACFF00BF1037BD4680BD80B58CB026
:101F600000AF7860012387F82F30504B504A1A6039
:101F70004E4B4FF4E1325A604C4B00229A604B4B6F
:101F80000022DA60494B00221A61484B0C225A6148
:101F9000464B00229A61454B0022DA61434804F027
:101FA0007DFA0346002B01D000237BE041493F48E6
:101FB00000F03AF97B68002283F8A4217B680022B4
:101FC00083F8A5217B68002283F8A6217B683A4A22
:101FD0001A607B680C225A607B684FF080429A60DE
:101FE0007B680022DA607B684FF420221A617B68EC
:101FF0004FF480125A617B6800221A767B680022B7
:102000005A767B6800229A767B680122DA767B68B2
:1020100000221A777B6800225A777B68184601F005
:1020200073F80346002B01D000233BE023491F48EF
:1020300000F0FAF800F014F921491C4800F0F4F817
:102040007B68184601F05BF90346002B01D00023A2
:1020500028E07B680221184601F082FB0346002B32
:1020600001D000231EE0174A07F1080392E803009D
:1020700083E8030008237B620423FB6100233B62A7
:10208000114BBB61786807F1100307F1080207F1F3
:10209000140101F078F90346002B01D0002301E080
:1020A00097F82F3018463037BD4680BD0815002000
:1020B00000440040A0C7000800640040BCC70008FE
:1020C000DCC70008FCC70008E00EE00E90B484B046
:1020D00000AF786039600023FB730023FB7311E0CD
:1020E000FA7B7B6893F8F5301C46FB7B39680A4421
:1020F00010797968E2000A44134402461A70FB7BA7
:102100000133FB73FB7B072BEAD97B6893F8F5302F
:102110001A463B6819687B68283243F822107B68AE
:10212000D3F8F0305A1C7B68C3F8F0207B6893F832
:10213000F5305A1C0F4B83FB0213D910D317C91A61
:102140000B469B000B449B00D11ACAB27B6883F8F4
:10215000F5207B6893F8F5207B6893F8F4309A4279
:1021600003D17B68012283F8F62000BF1037BD46FB
:1021700090BC70476766666680B584B000AF7860D3
:1021800039600123FB737B681A1D114B8C33106877
:10219000516803C30E4B08221A660D4B04229A6540
:1021A0000B4B0022DA657B681B68094A5365094BB3
:1021B000094A0A49064801F0E6F80346002B01D017
:1021C000002300E0FB7B18461037BD4680BD00BFF2
:1021D000A4BF00200CC0002030C00020F4BF0020AD
:1021E00084B080B584B000AF786007F11C0080E84F
:1021F0000E000123FB737B6804330822B96B184679
:1022000009F046FE3A6A7B681A6079680548FFF76C
:102210005DFFFB7B18461037BD46BDE8804004B02B
:10222000704700BF54C0002080B582B000AF786016
:10223000396032220021084809F038FE3968064822
:1022400009F02CFF0A2332220349044804F073F9F1
:1022500000BF0837BD4680BD60150020081500206E
:1022600080B59AB000AF3B1D64220021184609F0EA
:102270001DFEFB79022262F38403FB71FB796FF38D
:102280004103FB71FB796FF30003FB710123BB7109
:1022900011237B7122233B717B68E74A1360FB7A31
:1022A000022262F38403FB72FB7A6FF34103FB7239
:1022B000FB7A6FF30003FB720223BB7211237B7264
:1022C00022233B72BB68DC4AD360FB7B042262F3AF
:1022D0008403FB73FB7B6FF34103FB73FB7B6FF3A7
:1022E0000003FB730323BB7388237B7311233B73AE
:1022F000FB68D24A1360FB7C042262F38403FB7404
:10230000FB7C6FF34103FB74FB7C6FF30003FB74F6
:102310000423BB7433237B7411233B743B69C74A8A
:10232000D360FB7D042262F38403FB75FB7D6FF3B6
:102330004103FB75FB7D6FF30003FB750523BB7544
:1023400033237B7511233B757B69BC4AC2F8193076
:10235000FB7E042262F38403FB76FB7E6FF3410372
:10236000FB76FB7E6FF30003FB760623BB763323FD
:102370007B7644233B76BB69B14A1360FB7F042222
:1023800062F38403FB77FB7F6FF34103FB77FB7FF3
:102390006FF30003FB770723BB7733237B7744235B
:1023A0003B77FB69A64AD36097F82330042262F397
:1023B000840387F8233097F823306FF3410387F8BD
:1023C000233097F823306FF3000387F82330082376
:1023D00087F82230332387F82130442387F82030D0
:1023E0003B6A974A936197F82730042262F384038B
:1023F00087F8273097F827306FF3410387F82730A5
:1024000097F827306FF3000387F82730092387F800
:102410002630332387F82530442387F824307B6A1D
:10242000874A536297F82B30042262F3840387F8BB
:102430002B3097F82B306FF3410387F82B3097F848
:102440002B306FF3000387F82B30102387F82A30E6
:10245000332387F82930442387F82830BB6A784A29
:10246000136397F82F30012262F3840387F82F302B
:1024700097F82F306FF3410387F82F3097F82F30FC
:102480006FF3000387F82F30112387F82E30552380
:1024900087F82D30112387F82C30FB6A674AC2F881
:1024A000253097F83330012262F3840387F8333004
:1024B00097F833306FF3410387F8333097F83330B0
:1024C0006FF3000387F83330122387F83230662326
:1024D00087F83130112387F830303B6B574AC2F808
:1024E000313097F83730012262F3840387F83730B0
:1024F00097F837306FF3410387F8373097F8373064
:102500006FF3000387F83730132387F83630112331
:1025100087F83530552387F834307B6B494A136090
:1025200097F83B30012262F3840387F83B3097F839
:102530003B306FF3410387F83B3097F83B306FF344
:10254000000387F83B30142387F83A30112387F8CB
:102550003930552387F83830BB6B3A4AD36097F847
:102560003F30012262F3840387F83F3097F83F3011
:102570006FF3410387F83F3097F83F306FF3000364
:1025800087F83F30152387F83E30112387F83D3018
:10259000552387F83C30FB6B2A4A936197F8433008
:1025A000012262F3840387F8433097F843306FF3D6
:1025B000410387F8433097F843306FF3000387F8FF
:1025C0004330162387F84230112387F841306623C1
:1025D00087F840303B6C1C4A136097F84730012263
:1025E00062F3840387F8473097F847306FF341036D
:1025F00087F8473097F847306FF3000387F8473084
:10260000172387F84630112387F84530662387F86B
:1026100044307B6C0C4AD36097F84B30012262F354
:10262000840387F84B3097F84B306FF3410387F8FA
:102630004B3097F84B3009E048140020F01300208D
:102640006C140020A8140020CC1400206FF30003A9
:1026500087F84B30182387F84A30112387F8493020
:10266000662387F84830BB6C504A936197F84F3027
:10267000012262F3840387F84F3097F84F306FF3ED
:10268000410387F84F3097F84F306FF3000387F816
:102690004F30192387F84E30552387F84D301123DA
:1026A00087F84C30FB6C424AC2F83D3097F8533003
:1026B000012262F3840387F8533097F853306FF3A5
:1026C000410387F8533097F853306FF3000387F8CE
:1026D0005330202387F85230662387F85130112376
:1026E00087F850303B6D324AC2F8493097F857307E
:1026F000032262F3840387F8573097F857306FF35B
:10270000410387F8573097F857306FF3000387F885
:102710005730212387F85630112387F8553033235B
:1027200087F854307B6D234A136097F85B3043F091
:102730001C0387F85B3097F85B306FF3410387F831
:102740005B3097F85B306FF3000387F85B30222330
:1027500087F85A30112387F85930882387F8583082
:10276000BB6D154A136097F85F3043F01C0387F880
:102770005F3097F85F306FF3410387F85F3097F869
:102780005F306FF3000387F85F30232387F85E30F4
:10279000112387F85D30882387F85C30FB6D064A8B
:1027A000D36000BF6837BD4680BD00BFCC14002099
:1027B000F013002060140020F014002080B500AF5A
:1027C0000E4B1B680D4A43F4007313600B4B1B68E0
:1027D0000A4A43F480631360084B1B68074A43F4BA
:1027E00080731360032001F0EBFA0F2000F008F86B
:1027F000FEF75AFD0023184680BD00BF003C024092
:1028000080B582B000AF7860124B1A68124B1B780B
:1028100019464FF47A73B3FBF1F3B2FBF3F31846A6
:1028200001F003FB0346002B01D001230EE07B687F
:102830000F2B0AD8002279684FF0FF3001F0CBFA55
:10284000064A7B681360002300E00123184608371E
:10285000BD4680BD000000200800002004000020CC
:1028600080B400AF064B1B781A46064B1B68134416
:10287000044A136000BFBD465DF8047B704700BF8B
:10288000080000209415002080B400AF034B1B68A3
:102890001846BD465DF8047B704700BF94150020C4
:1028A00080B584B000AF7860FFF7EEFFB8607B685A
:1028B000FB60FB68B3F1FF3F05D00A4B1B781A465B
:1028C000FB681344FB6000BFFFF7DEFF0246BB68F6
:1028D000D31AFA689A42F7D800BF00BF1037BD4636
:1028E00080BD00BF0800002080B584B000AF7860D4
:1028F0000023FB737B68002B01D1012333E07B684D
:102900001B6C002B09D17868FEF7FAFC7B6800226B
:102910005A647B68002283F83C207B681B6C03F0C0
:102920001003002B18D17B681B6C23F4885323F011
:10293000020343F002027B681A64786800F0E8FA48
:102940007B6800225A647B681B6C23F0030343F00E
:1029500001027B681A6401E00123FB737B6800229B
:1029600083F83C20FB7B18461037BD4680BD000035
:1029700080B485B000AF78600023BB607B6893F8BB
:102980003C30012B01D10223B2E07B68012283F8A5
:102990003C207B681B689B6803F00103012B18D067
:1029A0007B681B689A687B681B6842F001029A602A
:1029B000524B1B68524AA2FB03239A0C13465B003E
:1029C0001344BB6002E0BB68013BBB60BB68002BEB
:1029D000F9D17B681B689B6803F00103012B7AD156
:1029E0007B681B6C23F4E06323F0010343F48072E3
:1029F0007B681A647B681B685B6803F48063002B48
:102A000007D07B681B6C23F4405343F480527B68EF
:102A10001A647B681B6C03F48053B3F5805F06D1A6
:102A20007B685B6C23F006027B685A6402E07B687B
:102A300000225A647B68002283F83C20314BFB6003
:102A40007B681B686FF022021A60FB685B6803F00A
:102A50001F03002B2AD17B681B682B4A934215D099
:102A60007B681B68294A934205D1264B5B6803F0BB
:102A70001F03002B0AD07B681B68254A934236D17E
:102A8000204B5B6803F01003002B30D17B681B6880
:102A90009B6803F04053002B29D17B681B689A6820
:102AA0007B681B6842F080429A6020E07B681B686C
:102AB000154A93421BD17B681B689B6803F0405307
:102AC000002B14D17B681B689A687B681B6842F0F6
:102AD00080429A600BE07B681B6C43F010027B68BD
:102AE0001A647B685B6C43F001027B685A640023C4
:102AF00018461437BD465DF8047B7047000000207F
:102B000083DE1B43002301400020014000210140DF
:102B10000022014080B483B000AF78607B6893F8F6
:102B20003C30012B01D1022321E07B68012283F894
:102B30003C207B681B689A687B681B6822F0010256
:102B40009A607B681B689B6803F00103002B09D126
:102B50007B681B6C23F4885323F0010343F00102CC
:102B60007B681A647B68002283F83C2000231846A7
:102B70000C37BD465DF8047B704780B584B000AF6C
:102B8000786039600023FB607B681B689B6803F4F6
:102B90008063B3F5806F13D17B681B689B6803F477
:102BA0008073B3F5807F0BD17B681B6C43F02002F0
:102BB0007B681A647B68002283F83C20012363E071
:102BC000FFF762FEF86021E03B68B3F1FF3F1DD0E4
:102BD0003B68002B07D0FFF757FE0246FB68D31A6D
:102BE0003A689A4212D27B681B681B6803F00203A2
:102BF000022B0BD07B681B6C43F004027B681A64C9
:102C00007B68002283F83C2003233DE07B681B683F
:102C10001B6803F00203022BD6D17B681B686FF0A0
:102C200012021A607B681B6C43F400727B681A64A2
:102C30007B681B689B6803F04053002B23D17B68A3
:102C40001B7E002B1FD17B681B68DB6A03F47003BB
:102C5000002B06D07B681B689B6803F48063002B05
:102C600011D17B681B6C23F480727B681A647B68CB
:102C70001B6C03F48053002B05D17B681B6C43F065
:102C800001027B681A64002318461037BD4680BDD8
:102C900080B483B000AF78607B681B68DB6C18463B
:102CA0000C37BD465DF8047B7047000080B485B0EA
:102CB00000AF786039600023BB607B6893F83C30DC
:102CC000012B01D1022313E17B68012283F83C2010
:102CD0003B681B68092B25D97B681B68D9683B6852
:102CE0001B689BB21A4613465B0013441E3B072227
:102CF00002FA03F3DA437B681B680A40DA607B68F8
:102D00001B68D9683B689A683B681B689BB2184689
:102D100003465B0003441E3B9A407B681B680A43E2
:102D2000DA6022E07B681B6819693B681B689BB20C
:102D30001A4613465B001344072202FA03F3DA43F0
:102D40007B681B680A401A617B681B6819693B68CD
:102D50009A683B681B689BB2184603465B000344B5
:102D60009A407B681B680A431A613B685B68062BC4
:102D700024D87B681B68596B3B685A6813469B00D4
:102D80001344053B1F2202FA03F3DA437B681B68F6
:102D90000A405A637B681B68596B3B681B689BB28F
:102DA00018463B685A6813469B001344053B00FADB
:102DB00003F27B681B680A435A634CE03B685B681C
:102DC0000C2B24D87B681B68196B3B685A68134628
:102DD0009B001344233B1F2202FA03F3DA437B6870
:102DE0001B680A401A637B681B68196B3B681B6889
:102DF0009BB218463B685A6813469B001344233B1A
:102E000000FA03F27B681B680A431A6323E07B68BD
:102E10001B68D96A3B685A6813469B001344413BC0
:102E20001F2202FA03F3DA437B681B680A40DA6266
:102E30007B681B68D96A3B681B689BB218463B6875
:102E40005A6813469B001344413B00FA03F27B6827
:102E50001B680A43DA62294BFB607B681B68284ABF
:102E600093420FD13B681B68122B0BD1FB685B6848
:102E700023F40002FB685A60FB685B6843F480023D
:102E8000FB685A607B681B681D4A93422BD13B68E4
:102E90001B681C4A934203D03B681B68112B22D14C
:102EA000FB685B6823F48002FB685A60FB685B6820
:102EB00043F40002FB685A603B681B68114A934266
:102EC00011D1114B1B68114AA2FB03239A0C134624
:102ED0009B0013445B00BB6002E0BB68013BBB602E
:102EE000BB68002BF9D17B68002283F83C200023CB
:102EF00018461437BD465DF8047B70470023014037
:102F000000200140120000100000002083DE1B435F
:102F100080B485B000AF7860794BFB60FB685B687C
:102F200023F44032FB685A60FB685A687B685B6830
:102F30001A43FB685A607B681B685A687B681B6889
:102F400022F480725A607B681B6859687B681B6931
:102F50001A027B681B680A435A607B681B685A68C0
:102F60007B681B6822F040725A607B681B68596856
:102F70007B689A687B681B680A435A607B681B6899
:102F80009A687B681B6822F400629A607B681B6801
:102F900099687B68DA687B681B680A439A607B687B
:102FA0009B6A584A934222D07B681B689A687B6868
:102FB0001B6822F070629A607B681B6899687B6866
:102FC0009A6A7B681B680A439A607B681B689A68E8
:102FD0007B681B6822F040529A607B681B68996886
:102FE0007B68DA6A7B681B680A439A600FE07B683B
:102FF0001B689A687B681B6822F070629A607B6825
:103000001B689A687B681B6822F040529A607B6854
:103010001B689A687B681B6822F002029A607B68D2
:103020001B6899687B681B7E5A007B681B680A4393
:103030009A607B6893F82030002B1BD07B681B685C
:103040005A687B681B6842F400625A607B681B68A0
:103050005A687B681B6822F460425A607B681B6870
:1030600059687B685B6A013B5A037B681B680A43AB
:103070005A6007E07B681B685A687B681B6822F40B
:1030800000625A607B681B68DA6A7B681B6822F4FE
:103090007002DA627B681B68D96A7B68DB69013B76
:1030A0001A057B681B680A43DA627B681B689A68AA
:1030B0007B681B6822F400729A607B681B689968C1
:1030C0007B6893F830305A027B681B680A439A6029
:1030D0007B681B689A687B681B6822F480629A6030
:1030E0007B681B6899687B685B699A027B681B68D0
:1030F0000A439A6000BF1437BD465DF8047B7047F1
:10310000002301400100000F80B584B000AF78605B
:103110007B68002B01D10123EDE07B6893F8203020
:10312000DBB2002B02D17868FEF7CCF97B681B6814
:103130001A687B681B6842F001021A60FFF7A4FB63
:10314000F86012E0FFF7A0FB0246FB68D31A0A2BD7
:103150000BD97B685B6A43F400327B685A627B68F8
:10316000052283F820200123C5E07B681B685B688B
:1031700003F00103002BE5D07B681B681A687B68AD
:103180001B6822F002021A60FFF77EFBF86012E073
:10319000FFF77AFB0246FB68D31A0A2B0BD97B6830
:1031A0005B6A43F400327B685A627B68052283F8CD
:1031B000202001239FE07B681B685B6803F002030B
:1031C000002BE5D17B681B7E012B08D17B681B6837
:1031D0001A687B681B6842F080021A6007E07B680F
:1031E0001B681A687B681B6822F080021A607B6883
:1031F0005B7E012B08D17B681B681A687B681B68A3
:1032000042F040021A6007E07B681B681A687B681E
:103210001B6822F040021A607B689B7E012B08D15C
:103220007B681B681A687B681B6842F020021A6082
:1032300007E07B681B681A687B681B6822F0200225
:103240001A607B68DB7E012B08D17B681B681A68DB
:103250007B681B6822F010021A6007E07B681B681D
:103260001A687B681B6842F010021A607B681B7F3B
:10327000012B08D17B681B681A687B681B6842F0C9
:1032800008021A6007E07B681B681A687B681B6885
:1032900022F008021A607B685B7F012B08D17B68F3
:1032A0001B681A687B681B6842F004021A6007E01A
:1032B0007B681B681A687B681B6822F004021A602E
:1032C0007B689A687B68DB681A437B681B691A43D2
:1032D0007B685B6942EA03017B685B685A1E7B6816
:1032E0001B680A43DA617B6800225A627B6801220C
:1032F00083F82020002318461037BD4680BD80B5D6
:1033000084B000AF78607B6893F82030DBB2012B8B
:103310002ED17B68022283F820207B681B681A6804
:103320007B681B6822F001021A60FFF7ADFAF860B3
:1033300012E0FFF7A9FA0246FB68D31A0A2B0BD951
:103340007B685B6A43F400327B685A627B680522C3
:1033500083F82020012312E07B681B685B6803F080
:103360000103002BE5D17B6800225A62002306E0AE
:103370007B685B6A43F400227B685A62012318462B
:103380001037BD4680BD80B489B000AFF860B96029
:103390007A603B60FB6893F82030FB77FB681B6822
:1033A0009B68BB61FB7F012B03D0FB7F022B40F0AE
:1033B000B880BB6903F08063002B0AD1BB6903F0BE
:1033C0000063002B05D1BB6903F08053002B00F094
:1033D000A080BB691B0E03F003037B617B69022B9A
:1033E00007D9FB685B6A43F40002FB685A62012359
:1033F0009EE001227B699A403B681A60BB689B682B
:10340000002B0DD1BB681B685A05BB68DB68F968E7
:1034100009681A437B6918331B010B441A600FE0DB
:10342000BB685B68DA00BB689B681A43BB68DB68F3
:10343000F96809681A437B6918331B010B441A6049
:10344000FB681968BB681A697B6918331B010B4458
:1034500004331A60BB681B7D012B11D1FB681A680D
:103460007B6918331B01134404331B68FA68116825
:1034700043F480727B6918331B010B4404331A60D8
:103480007B6807331B781A067B6806331B781B049E
:103490001A437B6805331B781B0213437A68043296
:1034A00012781046FA68116843EA00027B691B0132
:1034B0000B4403F5C6731A607B6803331B781A0646
:1034C0007B6802331B781B041A437B6801331B782B
:1034D0001B0213437A6812781046FA68116843EAAF
:1034E00000027B691B010B4403F5C4731A60FB687F
:1034F0001A687B6918331B0113441B68FA6811684A
:1035000043F001027B6918331B010B441A6000234E
:103510000EE0FB685B6A43F40012FB685A62012309
:1035200006E0FB685B6A43F48022FB685A62012371
:1035300018462437BD465DF8047B704780B487B0D9
:1035400000AFF860B9607A603B60FB6893F82030A8
:10355000FB75FB7D012B03D0FB7D022B40F0F3803C
:10356000BB68002B0ED1FB681B68DB6803F003030C
:10357000002B16D1FB685B6A43F40012FB685A62A9
:103580000123E7E0FB681B681B6903F00303002BC2
:1035900007D1FB685B6A43F40012FB685A6201239F
:1035A000D8E0FB681A68BB681B331B0113441B6817
:1035B00003F004027B689A607B689B68002B0CD147
:1035C000FB681A68BB681B331B0113441B685B0D47
:1035D000C3F30A027B681A600BE0FB681A68BB68D9
:1035E0001B331B0113441B68DB0823F060427B681C
:1035F0005A60FB681A68BB681B331B0113441B68C5
:1036000003F002027B68DA60FB681A68BB681B3350
:103610001B01134404331B6803F00F027B681A611B
:10362000FB681A68BB681B331B01134404331B6817
:103630001B0ADAB27B689A61FB681A68BB681B33A5
:103640001B01134404331B681B0C9AB27B685A613C
:10365000FB681A68BB681B01134403F5DC731B6825
:10366000DAB23B681A70FB681A68BB681B01134426
:1036700003F5DC731B681A0A3B680133D2B21A7077
:10368000FB681A68BB681B01134403F5DC731B68F5
:103690001A0C3B680233D2B21A70FB681A68BB6816
:1036A0001B01134403F5DC731B681A0E3B680333DC
:1036B000D2B21A70FB681A68BB681B01134403F589
:1036C000DE731A683B680433D2B21A70FB681A685A
:1036D000BB681B01134403F5DE731B681A0A3B68C1
:1036E0000533D2B21A70FB681A68BB681B01134419
:1036F00003F5DE731B681A0C3B680633D2B21A70EE
:10370000FB681A68BB681B01134403F5DE731B6872
:103710001A0E3B680733D2B21A70BB68002B08D16F
:10372000FB681B68DA68FB681B6842F02002DA60FD
:1037300007E0FB681B681A69FB681B6842F02002FF
:103740001A61002306E0FB685B6A43F48022FB6891
:103750005A62012318461C37BD465DF8047B70474A
:1037600080B485B000AF786039607B6893F8203012
:10377000FB73FB7B012B02D0FB7B022B09D17B6807
:103780001B6859697B681B683A680A435A610023C1
:1037900006E07B685B6A43F480227B685A620123FF
:1037A00018461437BD465DF8047B704780B58AB073
:1037B00000AF786000237B627B681B685B693B62BB
:1037C0007B681B685B68FB617B681B689B68BB61EF
:1037D0007B681B68DB687B617B681B681B693B61DE
:1037E0007B681B689B69FB603B6A03F00103002B4D
:1037F0007CD0BB6903F00103002B23D07B681B68DE
:1038000001229A60BB6903F00203002B03D07868A1
:1038100000F083F916E0BB6903F00403002B04D029
:103820007B6A43F400637B620CE0BB6903F008032E
:10383000002B04D07B6A43F480537B6202E07868FB
:1038400000F089F9BB6903F48073002B24D07B68F6
:103850001B684FF480729A60BB6903F40073002BFD
:1038600003D0786800F063F916E0BB6903F4806365
:10387000002B04D07B6A43F400537B620CE0BB69ED
:1038800003F40063002B04D07B6A43F480437B6223
:1038900002E0786800F069F9BB6903F48033002B1B
:1038A00024D07B681B684FF480329A60BB6903F4B4
:1038B0000033002B03D0786800F043F916E0BB69B1
:1038C00003F48023002B04D07B6A43F400437B6223
:1038D0000CE0BB6903F40023002B04D07B6A43F4A3
:1038E00080337B6202E0786800F049F93B6A03F0BC
:1038F0000803002B0CD07B6903F01003002B07D0CA
:103900007B6A43F400737B627B681B681022DA6079
:103910003B6A03F00403002B0BD07B6903F0080320
:10392000002B06D07B681B680822DA60786800F0FC
:103930003AF93B6A03F00203002B09D07B681B684D
:10394000DB6803F00303002B02D0786800F021F954
:103950003B6A03F04003002B0CD03B6903F01003DB
:10396000002B07D07B6A43F480637B627B681B6813
:1039700010221A613B6A03F02003002B0BD03B6935
:1039800003F00803002B06D07B681B6808221A612D
:10399000786800F01CF93B6A03F01003002B09D093
:1039A0007B681B681B6903F00303002B02D0786857
:1039B00000F003F93B6A03F40033002B0BD0FB69E2
:1039C00003F01003002B06D07B681B6810225A609E
:1039D000786800F006F93B6A03F48033002B0BD0C3
:1039E000FB6903F00803002B06D07B681B680822E4
:1039F0005A60786800F0FFF83B6A03F40043002B3C
:103A00007BD0FB6903F00403002B72D03B6A03F404
:103A10008073002B08D0FB6803F00103002B03D058
:103A20007B6A43F001037B623B6A03F40073002B63
:103A300008D0FB6803F00203002B03D07B6A43F03D
:103A400002037B623B6A03F48063002B08D0FB68AF
:103A500003F00403002B03D07B6A43F004037B6272
:103A60003B6A03F40063002B43D0FB6803F0700350
:103A7000002B3ED0FB6803F07003602B2BD0602B33
:103A80002ED8502B22D0502B2AD8402B19D0402B87
:103A900026D8302B10D0302B22D8102B02D0202B40
:103AA00005D01DE07B6A43F008037B6219E07B6A66
:103AB00043F010037B6214E07B6A43F020037B62D7
:103AC0000FE07B6A43F040037B620AE07B6A43F0CD
:103AD00080037B6205E07B6A43F480737B6200E0D5
:103AE00000BF7B681B689A697B681B6822F07002C4
:103AF0009A617B681B6804225A607B6A002B08D09D
:103B00007B685A6A7B6A1A437B685A62786800F05D
:103B10007CF800BF2837BD4680BD80B483B000AFBD
:103B2000786000BF0C37BD465DF8047B704780B4F9
:103B300083B000AF786000BF0C37BD465DF8047BF2
:103B4000704780B483B000AF786000BF0C37BD46CB
:103B50005DF8047B704780B483B000AF786000BF2D
:103B60000C37BD465DF8047B704780B483B000AF6E
:103B7000786000BF0C37BD465DF8047B704780B4A9
:103B800083B000AF786000BF0C37BD465DF8047BA2
:103B9000704780B483B000AF786000BF0C37BD467B
:103BA0005DF8047B704780B483B000AF786000BFDD
:103BB0000C37BD465DF8047B704780B483B000AF1E
:103BC000786000BF0C37BD465DF8047B704780B459
:103BD00083B000AF786000BF0C37BD465DF8047B52
:103BE000704780B483B000AF786000BF0C37BD462B
:103BF0005DF8047B704780B483B000AF786000BF8D
:103C00000C37BD465DF8047B704780B483B000AFCD
:103C1000786000BF0C37BD465DF8047B704700003C
:103C200080B485B000AF78607B6803F00703FB6069
:103C30000C4BDB68BB60BA684FF6FF031340BB60F8
:103C4000FB681A02BB68134343F0BF6343F40033BD
:103C5000BB60044ABB68D36000BF1437BD465DF843
:103C6000047B704700ED00E080B400AF044BDB68DC
:103C70001B0A03F007031846BD465DF8047B704736
:103C800000ED00E080B483B000AF0346FB7197F90C
:103C90000730002B0BDBFB7903F01F02074997F974
:103CA00007305B09012000FA02F241F8232000BF2F
:103CB0000C37BD465DF8047B704700BF00E100E0B3
:103CC00080B483B000AF03463960FB7197F90730C9
:103CD000002B0ADB3B68DAB20C4997F90730120176
:103CE000D2B20B4483F800230AE03B68DAB20849F9
:103CF000FB7903F00F03043B1201D2B20B441A7696
:103D000000BF0C37BD465DF8047B704700E100E062
:103D100000ED00E080B489B000AFF860B9607A606F
:103D2000FB6803F00703FB61FB69C3F10703042B86
:103D300028BF0423BB61FB690433062B02D9FB694E
:103D4000033B00E000237B614FF0FF32BB6902FAC6
:103D500003F3DA43BB681A407B699A404FF0FF31A6
:103D60007B6901FA03F3D9437B680B401343184680
:103D70002437BD465DF8047B7047000080B582B0F3
:103D800000AF78607B68013BB3F1807F01D30123F2
:103D90000FE00A4A7B68013B53600F214FF0FF3070
:103DA000FFF78EFF054B00229A60044B07221A6032
:103DB000002318460837BD4680BD00BF10E000E074
:103DC00080B582B000AF78607868FFF729FF00BF48
:103DD0000837BD4680BD80B586B000AF0346B960E8
:103DE0007A60FB7300237B61FFF73EFF78617A689E
:103DF000B9687869FFF78EFF024697F90F301146D0
:103E00001846FFF75DFF00BF1837BD4680BD80B57F
:103E100082B000AF0346FB7197F907301846FFF7F1
:103E200031FF00BF0837BD4680BD80B582B000AF0E
:103E300078607868FFF7A2FF034618460837BD464A
:103E400080BD80B582B000AF78607B68002B01D167
:103E500001230EE07B685B79DBB2002B05D17B6828
:103E600000221A717868FDF7EFFB7B6801225A7116
:103E7000002318460837BD4680BD000080B489B0D5
:103E800000AF7860396000237B6100233B61002331
:103E9000BB610023FB6165E10122FB6902FA03F3C8
:103EA0007B613B681B687A6913403B613A697B69B7
:103EB0009A4240F054813B685B6803F00303012B96
:103EC00005D03B685B6803F00303022B30D17B68AD
:103ED0009B68BB61FB695B00032202FA03F3DB43CF
:103EE000BA691340BB613B68DA68FB695B0002FAA0
:103EF00003F3BA691343BB617B68BA699A607B6854
:103F00005B68BB610122FB6902FA03F3DB43BA6918
:103F10001340BB613B685B681B0903F00102FB694E
:103F200002FA03F3BA691343BB617B68BA695A604A
:103F30003B685B6803F00303032B17D07B68DB68E7
:103F4000BB61FB695B00032202FA03F3DB43BA693E
:103F50001340BB613B689A68FB695B0002FA03F39C
:103F6000BA691343BB617B68BA69DA603B685B6816
:103F700003F00303022B23D1FB69DA087B680832C4
:103F800053F82230BB61FB6903F007039B000F224B
:103F900002FA03F3DB43BA691340BB613B681A6959
:103FA000FB6903F007039B0002FA03F3BA691343AA
:103FB000BB61FB69DA087B680832B96943F82210F3
:103FC0007B681B68BB61FB695B00032202FA03F399
:103FD000DB43BA691340BB613B685B6803F00302D3
:103FE000FB695B0002FA03F3BA691343BB617B68A8
:103FF000BA691A603B685B6803F44033002B00F039
:10400000AE800023FB605D4B5B6C5C4A43F48043F5
:1040100053645A4B5B6C03F48043FB60FB68584A63
:10402000FB699B08023352F82330BB61FB6903F044
:1040300003039B000F2202FA03F3DB43BA69134028
:10404000BB617B684F4A934225D07B684E4A9342BE
:104050001FD07B684D4A934219D07B684C4A9342EB
:1040600013D07B684B4A93420DD07B684A4A9342F7
:1040700007D07B68494A934201D106230CE007230D
:104080000AE0052308E0042306E0032304E00223FA
:1040900002E0012300E00023FA6902F0030292002B
:1040A0009340BA691343BB613549FB699B080233EE
:1040B000BA6941F823203A4B9B68BB613B69DB43FB
:1040C000BA691340BB613B685B6803F48013002B43
:1040D00003D0BA693B691343BB61314ABB69936042
:1040E0002F4BDB68BB613B69DB43BA691340BB61A3
:1040F0003B685B6803F40013002B03D0BA693B698B
:104100001343BB61264ABB69D360254B5B68BB6127
:104110003B69DB43BA691340BB613B685B6803F4EE
:104120000033002B03D0BA693B691343BB611C4ABF
:10413000BB6953601A4B1B68BB613B69DB43BA69BF
:104140001340BB613B685B6803F48033002B03D0F2
:10415000BA693B691343BB61114ABB691360FB69D0
:104160000133FB61FB690F2B7FF696AE00BF00BFEA
:104170002437BD465DF8047B704700BF003802401D
:1041800000380140000002400004024000080240E4
:10419000000C0240001002400014024000180240CF
:1041A000003C014080B483B000AF78600B467B8058
:1041B00013467B707B78002B03D07A887B689A61EA
:1041C00003E07B881A047B689A6100BF0C37BD4608
:1041D0005DF8047B7047000080B582B000AF0346F5
:1041E000FB80084B5A69FB881340002B06D0054A18
:1041F000FB885361FB88184600F006F800BF0837BB
:10420000BD4680BD003C014080B483B000AF034692
:10421000FB8000BF0C37BD465DF8047B7047000093
:1042200080B584B000AF78607B68002B01D101239A
:104230002BE17B6893F83D30DBB2002B06D17B6825
:10424000002283F83C207868FDF720FA7B6824225E
:1042500083F83D207B681B681A687B681B6822F026
:1042600001021A607B681B681A687B681B6842F44D
:1042700000421A607B681B681A687B681B6822F41E
:1042800000421A6000F002FAF8607B685B68814ABD
:10429000934207D8FB68804A934294BF01230023CE
:1042A000DBB206E0FB687D4A934294BF0123002302
:1042B000DBB2002B01D00123E7E0FB68784AA2FBC8
:1042C00003239B0CBB607B681B685B6823F03F018A
:1042D0007B681B68BA680A435A607B681B681B6A64
:1042E00023F03F017B685B686A4A934202D8BB684F
:1042F000013309E0BB684FF4967202FB03F3694A8D
:10430000A2FB03239B0901337A6812680B431362F3
:104310007B681B68DB6923F44F4222F0FF027B6855
:104320005B685C498B4219D8FB68591E7B685B68E7
:104330005B00B1FBF3F3591C40F6FC730B40002B00
:104340000AD0FB68591E7B685B685B00B1FBF3F326
:104350000133C3F30B0351E004234FE07B689B68F8
:10436000002B11D1FB68581E7B6859680B465B0017
:104370000B44B0FBF3F30133C3F30B03002B0CBF6F
:1043800001230023DBB212E0FB68581E7B685968EA
:104390000B469B000B4499000B44B0FBF3F3013335
:1043A000C3F30B03002B0CBF01230023DBB2002B54
:1043B00001D0012322E07B689B68002B0ED1FB68B3
:1043C000581E7B6859680B465B000B44B0FBF3F347
:1043D0000133C3F30B0343F400430FE0FB68581EA3
:1043E0007B6859680B469B000B4499000B44B0FB5B
:1043F000F3F30133C3F30B0343F4404379680968D3
:104400001343CB617B681B681B6823F0C0017B688A
:10441000DA697B681B6A1A437B681B680A431A6067
:104420007B681B689B6823F4034323F0FF037A68CF
:1044300011697A68D26811437A6812680B439360F5
:104440007B681B68DB6823F0FF017B685A697B6827
:104450009B691A437B681B680A43DA607B681B68A8
:104460001A687B681B6842F001021A607B680022B0
:104470001A647B68202283F83D207B6800221A633F
:104480007B68002283F83E20002318461037BD4683
:1044900080BD00BFA08601007F841E00FF083D0094
:1044A00083DE1B43D34D621080B584B000AF7860CB
:1044B00039607B68002B01D10123CCE0684B1B687D
:1044C00003F00F033A689A420CD9654B3A68D2B2AE
:1044D0001A70634B1B6803F00F033A689A4201D0CD
:1044E0000123B8E07B681B6803F00203002B20D097
:1044F0007B681B6803F00403002B05D0594B9B68B5
:10450000584A43F4E05393607B681B6803F0080348
:10451000002B05D0534B9B68524A43F46043936091
:10452000504B9B6823F0F0027B689B684D49134316
:104530008B607B681B6803F00103002B44D07B6811
:104540005B68012B07D1474B1B6803F40033002B3A
:1045500019D101237FE07B685B68022B03D07B6865
:104560005B68032B07D13F4B1B6803F00073002BE4
:1045700009D101236FE03B4B1B6803F00203002BC2
:1045800001D1012367E0374B9B6823F003027B686E
:104590005B68344913438B60FEF776F9F8600AE0F4
:1045A000FEF772F90246FB68D31A41F28832934251
:1045B00001D903234FE02B4B9B6803F00C027B686F
:1045C0005B689B009A42EBD1254B1B6803F00F03FD
:1045D0003A689A420CD2224B3A68D2B21A70204BF7
:1045E0001B6803F00F033A689A4201D0012332E0BE
:1045F0007B681B6803F00403002B08D0194B9B68F1
:1046000023F4E0527B68DB68164913438B607B68B8
:104610001B6803F00803002B09D0124B9B6823F49E
:1046200060427B681B69DB000E4913438B6000F01E
:104630007FFB02460B4B9B681B0903F00F030A49E3
:10464000CB5C22FA03F3094A1360094B1B68184636
:10465000FEF7D6F8002318461037BD4680BD00BFD0
:10466000003C0240003802401CCB00080000002043
:104670000400002080B400AF034B1B681846BD4601
:104680005DF8047B704700BF0000002080B500AFDC
:10469000FFF7F0FF0246054B9B689B0A03F00703F8
:1046A0000349CB5C22FA03F3184680BD0038024070
:1046B0002CCB000880B500AFFFF7DCFF0246054BAE
:1046C0009B685B0B03F007030349CB5C22FA03F3FF
:1046D000184680BD003802402CCB000880B58CB055
:1046E00000AF786000237B6200233B620023FB6104
:1046F0000023BB6100237B6100233B610023FB603F
:104700000023FB620023BB627B681B6803F001038C
:10471000002B10D06F4BD3F88C3023F0C0627B6835
:104720009B6B6C491343C1F88C307B689B6B002BEF
:1047300001D10123FB627B681B6803F00203002B9D
:1047400010D0644BD3F88C3023F0C0527B68DB6B05
:1047500060491343C1F88C307B68DB6B002B01D1BF
:104760000123FB627B681B6803F00403002B17D056
:10477000584BD3F88C3023F440127B681B6B55499F
:104780001343C1F88C307B681B6BB3F5801F01D1DC
:104790000123FB627B681B6B002B01D10123BB62F1
:1047A0007B681B6803F00803002B17D0494BD3F834
:1047B0008C3023F440027B685B6B46491343C1F89D
:1047C0008C307B685B6BB3F5800F01D10123FB62FA
:1047D0007B685B6B002B01D10123BB627B681B688C
:1047E00003F02003002B00F08A800023BB60394BCC
:1047F0001B6C384A43F080531364364B1B6C03F038
:104800008053BB60BB68344B1B68334A43F48073EE
:104810001360FEF739F8786208E0FEF735F80246D3
:104820007B6AD31A022B01D9032378E22A4B1B6837
:1048300003F48073002BF0D0264B1B6F03F44073FE
:104840003B623B6A002B2FD07B681B6C03F44073E8
:104850003A6A9A4228D01F4B1B6F23F440733B6285
:104860001E4B01221A601D4B00221A60194A3B6A36
:104870001367184B1B6F03F00103012B14D1FEF7D4
:1048800003F878620AE0FDF7FFFF02467B6AD31A5D
:1048900041F28832934201D9032340E20D4B1B6F52
:1048A00003F00203002BEED07B681B6C03F4407313
:1048B000B3F5407F14D1074B9B6823F4F8127B6853
:1048C0001B6C23F0704323F44073024913438B6045
:1048D0000CE000BF0038024000700040400E47422C
:1048E0004A4B9B68494A23F4F8139360474B1A6F6D
:1048F0007B681B6CC3F30B03444913430B677B6852
:104900001B6803F01003002B04D07B6893F8582039
:104910003F4B1A607B681B6803F08003002B0AD0B2
:104920003A4BD3F8943023F440027B68DB6C374970
:104930001343C1F894307B681B6803F04003002BDD
:104940000AD0324BD3F8943023F080627B689B6CA2
:104950002E491343C1F894307B681B6803F48073BD
:10496000002B11D0294BD3F8943023F000627B68E0
:104970005B6D26491343C1F894307B685B6DB3F1DE
:10498000006F01D10123BB627B681B6803F40073D5
:10499000002B0AD01D4BD3F8943023F080527B6853
:1049A0005B6C1A491343C1F894307B681B6803F4AD
:1049B0008063002B11D0154BD3F8943023F00052B4
:1049C0007B681B6D11491343C1F894307B681B6DE4
:1049D000B3F1005F01D10123FB62FB6A012B05D01B
:1049E0007B681B68B3F5006F40F0FF80094B002225
:1049F0001A60FDF749FF78620EE0FDF745FF0246B9
:104A00007B6AD31A022B07D9032388E100380240BE
:104A1000E0114742680047427E4B1B6803F0006389
:104A2000002BEAD17B681B6803F00103002B03D045
:104A30007B689B6B002B09D07B681B6803F002032B
:104A4000002B28D07B68DB6B002B24D1714BD3F873
:104A500084301B0C03F0030301335B00FB616D4BDF
:104A6000D3F884301B0E03F00F03BB617B685A68D8
:104A70007B689B689B011A43FB695B08013B1B0435
:104A80001A43BB691B061A437B685B691B076149B4
:104A90001343C1F884307B681B6803F00403002BC8
:104AA00004D07B681B6BB3F5801F0AD07B681B6842
:104AB00003F00803002B35D07B685B6BB3F5800FE8
:104AC00030D1544BD3F884301B0C03F00303013373
:104AD0005B00FB614F4BD3F884301B0F03F00703DF
:104AE0007B617B685A687B689B689B011A43FB6902
:104AF0005B08013B1B041A437B681B691B061A43B6
:104B00007B691B0743491343C1F88430414BD3F8F9
:104B10008C3023F01F027B689B6A013B3D491343A5
:104B2000C1F88C307B681B6803F48063002B29D0AC
:104B30007B681B6DB3F1005F24D1364BD3F8843012
:104B40001B0C03F0030301335B00BB61314BD3F853
:104B500084301B0F03F007037B617B685A687B6816
:104B60009B689B011A437B68DB685B08013B1B0465
:104B70001A43BB691B061A437B691B07254913436C
:104B8000C1F884307B681B6803F40063002B16D0E7
:104B90007B685A687B689B689B011A437B68DB686B
:104BA0005B08013B1B041A437B681B691B061A4305
:104BB0007B685B691B0717491343C1F88430164BA8
:104BC00001221A60FDF760FE786208E0FDF75CFEE6
:104BD00002467B6AD31A022B01D903239FE00D4BB7
:104BE0001B6803F00063002BF0D0BB6A012B40F080
:104BF00095800A4B00221A60FDF746FE78620FE0AE
:104C0000FDF742FE02467B6AD31A022B08D9032322
:104C100085E000BF0038024068004742700047420C
:104C2000414B1B6803F00053B3F1005FE8D07B6891
:104C30001B6803F00403002B03D07B681B6B002B65
:104C400009D07B681B6803F00803002B2BD07B681E
:104C50005B6B002B27D1344BD3F888301B0C03F04F
:104C6000030301335B003B617B689A697B68DB6906
:104C70009B011A433B695B08013B1B041A437B6899
:104C80005B6A1B0628491343C1F88830264BD3F8CA
:104C90008C3023F4F8527B68DB6A013B1B0222490B
:104CA0001343C1F88C307B681B6803F48073002BBE
:104CB0001DD07B685B6DB3F1006F18D11A4BD3F830
:104CC00088301B0E03F00F03FB607B689A697B68DA
:104CD000DB699B011A437B681B6A5B08013B1B0471
:104CE0001A43FB681B0610491343C1F888300F4B69
:104CF00001221A60FDF7C8FD786208E0FDF7C4FDE7
:104D000002467B6AD31A022B01D9032307E0064B24
:104D10001B6803F00053B3F1005FEFD10023184686
:104D20003037BD4680BD00BF0038024070004742AA
:104D30002DE9B04FA6B000AF0023C7F88C30002398
:104D4000C7F894300023C7F888300023C7F88430B0
:104D50000023C7F89030C84B9B6803F00C030C2B62
:104D600000F27E8101A252F823F000BFA14D00089D
:104D7000615000086150000861500008A94D00080A
:104D8000615000086150000861500008B14D0008F2
:104D90006150000861500008615000081B4F000876
:104DA000B64BC7F890305FE1B54BC7F890305BE188
:104DB000B14B5B6803F03F03C7F88C30AE4B5B68C8
:104DC00003F48003002B31D0AB4B5B689B090022BE
:104DD000BB66FA66BB6EC3F308033B6600237B66C3
:104DE000A74BD7E918452A4603FB02F200232146C8
:104DF00001FB03F31344A24A2146A1FB0212FA6706
:104E00000A46BA67FA6F1344FB67D7F88C30002262
:104E1000BB65FA65D7E91623D7E91E01FBF748FA07
:104E200002460B461346C7F8943064E0924B5B6829
:104E30009B0900223B657A653B6DC3F30803BB64A5
:104E40000023FB64D7E9124522462B464FF00000B1
:104E50004FF00001590141EAD261500102460B4670
:104E60002146511A3961294663EB01037B614FF0FA
:104E700000024FF00003D7E904AB59468B015146BD
:104E800043EA916351468A015146B2EB0108594603
:104E900063EB01094FF000024FF000034FEAC90332
:104EA00043EA58734FEAC80290469946234618EBE6
:104EB0000303BB602B4649EB0303FB604FF000028A
:104EC0004FF00003D7E9024529468B02214643EA09
:104ED000915321468A0210461946D7F88C30002299
:104EE0003B647A64D7E91023FBF7E2F902460B46EC
:104EF0001346C7F89430604B5B681B0C03F0030348
:104F000001335B00C7F88830D7F89420D7F8883091
:104F1000B2FBF3F3C7F89030A6E0574B5B6803F0A1
:104F20003F03C7F88C30544B5B6803F48003002BBD
:104F30002AD0514B5B689B090022BB63FA63BB6BB1
:104F4000C3F3080000214E4B03FB01F2002300FBDA
:104F500003F313444A4AA0FB02127A670A463A67EF
:104F60007A6F13447B67D7F88C3000223B637A63F7
:104F7000D7E90C23D7E91C01FBF79AF902460B4647
:104F80001346C7F894305BE03B4B5B689B090022FB
:104F9000BB62FA62BB6AC3F308033B6200237B6215
:104FA000D7E9088942464B464FF000004FF0000118
:104FB000590141EAD261500102460B464146B2EB2B
:104FC000010A494663EB010B4FF000024FF000036A
:104FD0004FEA8B1343EA9A634FEA8A12B2EB0A0450
:104FE00063EB0B054FF000024FF00003EB0043EAC8
:104FF0005473E20014461D464346E3183B604B469B
:1050000045EB03037B604FF000024FF00003D7E94C
:10501000004529468B02214643EA915321468A02E4
:1050200010461946D7F88C300022BB61FA61D7E9E7
:105030000623FBF73DF902460B461346C7F89430AA
:105040000D4B5B681B0F03F00703C7F88430D7F8DC
:105050009420D7F88430B2FBF3F3C7F8903003E024
:10506000064BC7F8903000BFD7F8903018469837F5
:10507000BD46BDE8B08F00BF003802400024F400F8
:1050800040787D0180B586B000AF78607B68002BEA
:1050900001D101238DE27B681B6803F00103002B23
:1050A00000F08380944B9B6803F00C03042B19D011
:1050B000914B9B6803F00C03082B06D18E4B5B6869
:1050C00003F48003B3F5800F0CD08B4B9B6803F087
:1050D0000C030C2B12D1884B5B6803F48003B3F5EF
:1050E000800F0BD1844B1B6803F40033002B5BD083
:1050F0007B685B68002B57D101235AE27B685B68B1
:10510000B3F5803F06D17C4B1B687B4A43F4803368
:1051100013601DE07B685B68B3F5A02F0CD1764B64
:105120001B68754A43F480231360734B1B68724AF3
:1051300043F4803313600BE06F4B1B686E4A23F41B
:10514000803313606C4B1B686B4A23F4802313601D
:105150007B685B68002B13D0FDF796FB386108E095
:10516000FDF792FB02463B69D31A642B01D9032356
:105170001FE2614B1B6803F40033002BF0D014E0F6
:10518000FDF782FB386108E0FDF77EFB02463B69D4
:10519000D31A642B01D903230BE2574B1B6803F48A
:1051A0000033002BF0D100E000BF7B681B6803F0E8
:1051B0000203002B6FD0504B9B6803F00C03002BB5
:1051C00017D04D4B9B6803F00C03082B05D14A4BBD
:1051D0005B6803F48003002B0BD0474B9B6803F004
:1051E0000C030C2B1CD1444B5B6803F48003002B95
:1051F00016D1414B1B6803F00203002B05D07B68DE
:10520000DB68012B01D00123D3E13B4B1B6823F06A
:10521000F8027B681B69DB00374913430B603AE0F7
:105220007B68DB68002B20D0344B01221A60FDF72D
:105230002BFB386108E0FDF727FB02463B69D31AD8
:10524000022B01D90323B4E12B4B1B6803F00203AB
:10525000002BF0D0284B1B6823F0F8027B681B69F9
:10526000DB00254913430B6015E0244B00221A6034
:10527000FDF70AFB386108E0FDF706FB02463B69D3
:10528000D31A022B01D9032393E11B4B1B6803F0B4
:105290000203002BF0D17B681B6803F00803002B8E
:1052A00036D07B685B69002B16D0154B01221A6043
:1052B000FDF7EAFA386108E0FDF7E6FA02463B69D5
:1052C000D31A022B01D9032373E10B4B5B6F03F05D
:1052D0000203002BF0D01BE0094B00221A60FDF7FF
:1052E000D3FA38610EE0FDF7CFFA02463B69D31AD4
:1052F000022B07D903235CE100380240000047423B
:10530000800E47428A4B5B6F03F00203002BEAD109
:105310007B681B6803F00403002B00F097800023D8
:10532000FB75834B1B6C03F08053002B0FD10023C4
:10533000BB607F4B1B6C7E4A43F0805313647C4BF5
:105340001B6C03F08053BB60BB680123FB75794B7A
:105350001B6803F48073002B18D1764B1B68754AC9
:1053600043F480731360FDF78FFA386108E0FDF7AE
:105370008BFA02463B69D31A022B01D9032318E1A9
:105380006C4B1B6803F48073002BF0D07B689B6828
:10539000012B06D1664B1B6F654A43F0010313676F
:1053A0001CE07B689B68052B0CD1614B1B6F604A2E
:1053B00043F0040313675E4B1B6F5D4A43F0010328
:1053C00013670BE05A4B1B6F594A23F00103136715
:1053D000574B1B6F564A23F0040313677B689B6887
:1053E000002B15D0FDF750FA38610AE0FDF74CFAB2
:1053F00002463B69D31A41F28832934201D9032312
:10540000D7E04B4B1B6F03F00203002BEED014E0F0
:10541000FDF73AFA38610AE0FDF736FA02463B69D1
:10542000D31A41F28832934201D90323C1E0404BA1
:105430001B6F03F00203002BEED1FB7D012B05D186
:105440003B4B1B6C3A4A23F0805313647B689B6987
:10545000002B00F0AD80364B9B6803F00C03082B4B
:1054600060D07B689B69022B45D1334B00221A60C8
:10547000FDF70AFA386108E0FDF706FA02463B69D3
:10548000D31A022B01D9032393E0294B1B6803F0A5
:105490000073002BF0D17B68DA697B681B6A1A43C2
:1054A0007B685B6A9B011A437B689B6A5B08013BD4
:1054B0001B041A437B68DB6A1B061A437B681B6B61
:1054C0001B071B4913434B601B4B01221A60FDF75E
:1054D000DBF9386108E0FDF7D7F902463B69D31ADA
:1054E000022B01D9032364E0114B1B6803F0007306
:1054F000002BF0D05CE0104B00221A60FDF7C4F9DD
:10550000386108E0FDF7C0F902463B69D31A022B67
:1055100001D903234DE0064B1B6803F00073002BF9
:10552000F0D145E07B689B69012B07D1012340E066
:105530000038024000700040600047421F4B5B682B
:10554000FB607B689B69012B30D0FB6803F4800211
:105550007B68DB699A4229D1FB6803F03F027B68D4
:105560001B6A9A4222D1FA6847F6C07313407A68E0
:10557000526A9201934219D1FB6803F440327B686E
:105580009B6A5B08013B1B049A420FD1FB6803F046
:1055900070627B68DB6A1B069A4207D1FB6803F0E6
:1055A000E0427B681B6B1B079A4201D0012300E09D
:1055B000002318461837BD4680BD00BF00380240A2
:1055C00080B584B000AF78600123FB737B68002B4B
:1055D00001D1012366E07B685B7FDBB2002B05D144
:1055E0007B6800221A777868FCF726F97B6802222C
:1055F0005A777B681B68CA225A627B681B685322F1
:105600005A62786800F07AF80346FB73FB7B002B44
:105610002CD17B681B689B687A68126823F4E003CE
:1056200023F0400393607B681B6899687B685A6825
:105630007B681B691A437B685B691A437B681B683C
:105640000A439A607B681B687A68D2681A617B6833
:105650001B6819697B689B681A047B681B680A438E
:105660001A61786800F081F80346FB73FB7B002B1E
:1056700013D17B681B681A6C7B681B6822F480223C
:105680001A647B681B68196C7B689A697B681B6865
:105690000A431A647B6801225A777B681B68FF22E1
:1056A0005A62FB7B18461037BD4680BD80B584B07A
:1056B00000AF78600023FB607B681B68DA687B685A
:1056C0001B6822F0A002DA60FDF7DEF8F86009E05E
:1056D000FDF7DAF80246FB68D31AB3F57A7F01D9F1
:1056E000032307E07B681B68DB6803F02003002BC3
:1056F000EED0002318461037BD4680BD80B584B07B
:1057000000AF78600023BB600023FB737B681B68DD
:10571000DB6803F04003002B22D17B681B68DA684A
:105720007B681B6842F08002DA60FDF7ADF8B86074
:105730000CE0FDF7A9F80246BB68D31AB3F57A7FEF
:1057400004D97B6804225A770123FB737B681B68AA
:10575000DB6803F04003002B02D1FB7B012BE8D177
:10576000FB7B18461037BD4680BD80B584B000AFC6
:1057700078600023FB737B681B68DA687B681B68B2
:1057800022F08002DA607B681B689B6803F02003CC
:10579000002B0AD17868FFF789FF0346002B04D05D
:1057A0007B6804225A770123FB73FB7B1846103772
:1057B000BD4680BD80B582B000AF78607B68002BAD
:1057C00001D101237BE07B685B6A002B08D17B68F9
:1057D0005B68B3F5827F09D07B680022DA6105E05F
:1057E0007B6800221A617B6800225A617B68002274
:1057F0009A627B6893F85130DBB2002B06D17B684C
:10580000002283F850207868FCF740F87B68022279
:1058100083F851207B681B681A687B681B6822F03C
:1058200040021A607B685B6803F482727B689B6845
:1058300003F404431A437B68DB6803F400631A43F0
:105840007B681B6903F002031A437B685B6903F002
:1058500001031A437B689B6903F400731A437B6856
:10586000DB6903F038031A437B681B6A03F080038B
:1058700042EA03017B689B6A03F400527B681B6861
:105880000A431A607B689B691B0C03F004017B6868
:105890005B6A03F010027B681B680A435A607B68EE
:1058A0001B68DA697B681B6822F40062DA617B6836
:1058B00000225A657B68012283F851200023184694
:1058C0000837BD4680BD80B582B000AF78607B6888
:1058D000002B01D1012341E07B6893F83D30DBB21E
:1058E000002B06D17B68002283F83C207868FCF707
:1058F0009BF87B68022283F83D207B681A687B68EE
:1059000004331946104600F011FA7B68012283F82F
:1059100046207B68012283F83E207B68012283F8C1
:105920003F207B68012283F840207B68012283F8B6
:1059300041207B68012283F842207B68012283F8A2
:1059400043207B68012283F844207B68012283F88E
:1059500045207B68012283F83D2000231846083744
:10596000BD4680BD80B582B000AF78607B68002BFB
:1059700001D1012341E07B6893F83D30DBB2002B7D
:1059800006D17B68002283F83C20786800F039F863
:105990007B68022283F83D207B681A687B680433A9
:1059A0001946104600F0C2F97B68012283F84620B0
:1059B0007B68012283F83E207B68012283F83F2028
:1059C0007B68012283F840207B68012283F8412014
:1059D0007B68012283F842207B68012283F8432000
:1059E0007B68012283F844207B68012283F84520EC
:1059F0007B68012283F83D20002318460837BD4606
:105A000080BD80B483B000AF786000BF0C37BD4666
:105A10005DF8047B7047000080B586B000AFF86089
:105A2000B9607A600023FB75FB6893F83C30012B6A
:105A300001D10223AEE0FB68012283F83C207B68A1
:105A40000C2B00F29F8001A252F823F0815A00082B
:105A5000855B0008855B0008855B0008C15A00086B
:105A6000855B0008855B0008855B0008035B000818
:105A7000855B0008855B0008855B0008435B0008C8
:105A8000FB681B68B968184600F0F0F9FB681B68F2
:105A90009A69FB681B6842F008029A61FB681B6800
:105AA0009A69FB681B6822F004029A61FB681B6814
:105AB0009969BB681A69FB681B680A439A6164E0CC
:105AC000FB681B68B968184600F040FAFB681B6861
:105AD0009A69FB681B6842F400629A61FB681B6864
